{
  "contractName": "mcoin",
  "abi": [
    {
      "constant": true,
      "inputs": [],
      "name": "totalSupply",
      "outputs": [
        {
          "name": "",
          "type": "uint256"
        }
      ],
      "payable": false,
      "stateMutability": "view",
      "type": "function"
    },
    {
      "inputs": [],
      "payable": false,
      "stateMutability": "nonpayable",
      "type": "constructor"
    }
  ],
  "bytecode": "0x608060405234801561001057600080fd5b50620f4240600081905550609e806100296000396000f300608060405260043610603f576000357c0100000000000000000000000000000000000000000000000000000000900463ffffffff16806318160ddd146044575b600080fd5b348015604f57600080fd5b506056606c565b6040518082815260200191505060405180910390f35b600054815600a165627a7a723058205576896446bcdd406ec83be8d5f9780145604e19165f1a954f355cd11f18b1390029",
  "source": "pragma solidity ^0.4.2;\r\n\r\ncontract mcoin {\r\n\t/* this is a state variable, which means\r\n\tthat it is stored on the blockchain, and\r\n\tanytime we update it, we are writing to\r\n\tthe blockchain */\r\n\t// public state variables have getters\r\n\t// total supply function required for erc20\r\n\tuint256 public totalSupply;\r\n\r\n\t// Constructor\r\n\tfunction mcoin() public {\r\n\t\ttotalSupply = 1000000;\r\n\t}\r\n\r\n\t// Set the number of tokens\r\n\t// Read the number of tokens\t\r\n}",
  "sourcePath": "C:\\Users\\Jorda\\Documents\\Coding\\blockchain\\contracts\\mcoin.sol",
  "compiler": {
    "name": "solc",
    "version": "0.4.23+commit.124ca40d.Emscripten.clang"
  },
  "schemaVersion": "2.0.0",
  "updatedAt": "2018-05-15T14:18:12.825Z"
}