{
  "contractName": "mcoin",
  "abi": [
    {
      "constant": true,
      "inputs": [],
      "name": "name",
      "outputs": [
        {
          "name": "",
          "type": "string"
        }
      ],
      "payable": false,
      "stateMutability": "view",
      "type": "function"
    },
    {
      "constant": true,
      "inputs": [],
      "name": "totalSupply",
      "outputs": [
        {
          "name": "",
          "type": "uint256"
        }
      ],
      "payable": false,
      "stateMutability": "view",
      "type": "function"
    },
    {
      "constant": true,
      "inputs": [],
      "name": "decimals",
      "outputs": [
        {
          "name": "",
          "type": "uint256"
        }
      ],
      "payable": false,
      "stateMutability": "view",
      "type": "function"
    },
    {
      "constant": true,
      "inputs": [],
      "name": "standard",
      "outputs": [
        {
          "name": "",
          "type": "string"
        }
      ],
      "payable": false,
      "stateMutability": "view",
      "type": "function"
    },
    {
      "constant": true,
      "inputs": [
        {
          "name": "",
          "type": "address"
        }
      ],
      "name": "balanceOf",
      "outputs": [
        {
          "name": "",
          "type": "uint256"
        }
      ],
      "payable": false,
      "stateMutability": "view",
      "type": "function"
    },
    {
      "constant": true,
      "inputs": [],
      "name": "tokenPrice",
      "outputs": [
        {
          "name": "",
          "type": "uint256"
        }
      ],
      "payable": false,
      "stateMutability": "view",
      "type": "function"
    },
    {
      "constant": true,
      "inputs": [],
      "name": "symbol",
      "outputs": [
        {
          "name": "",
          "type": "string"
        }
      ],
      "payable": false,
      "stateMutability": "view",
      "type": "function"
    },
    {
      "constant": true,
      "inputs": [],
      "name": "price",
      "outputs": [
        {
          "name": "",
          "type": "uint256"
        }
      ],
      "payable": false,
      "stateMutability": "view",
      "type": "function"
    },
    {
      "constant": true,
      "inputs": [],
      "name": "totalMinted",
      "outputs": [
        {
          "name": "",
          "type": "uint256"
        }
      ],
      "payable": false,
      "stateMutability": "view",
      "type": "function"
    },
    {
      "constant": true,
      "inputs": [
        {
          "name": "",
          "type": "address"
        },
        {
          "name": "",
          "type": "address"
        }
      ],
      "name": "allowance",
      "outputs": [
        {
          "name": "",
          "type": "uint256"
        }
      ],
      "payable": false,
      "stateMutability": "view",
      "type": "function"
    },
    {
      "constant": true,
      "inputs": [],
      "name": "increase",
      "outputs": [
        {
          "name": "",
          "type": "uint256"
        }
      ],
      "payable": false,
      "stateMutability": "view",
      "type": "function"
    },
    {
      "constant": true,
      "inputs": [],
      "name": "ethPool",
      "outputs": [
        {
          "name": "",
          "type": "uint256"
        }
      ],
      "payable": false,
      "stateMutability": "view",
      "type": "function"
    },
    {
      "constant": true,
      "inputs": [],
      "name": "admin",
      "outputs": [
        {
          "name": "",
          "type": "address"
        }
      ],
      "payable": false,
      "stateMutability": "view",
      "type": "function"
    },
    {
      "inputs": [
        {
          "name": "_initialSupply",
          "type": "uint256"
        }
      ],
      "payable": false,
      "stateMutability": "nonpayable",
      "type": "constructor"
    },
    {
      "anonymous": false,
      "inputs": [
        {
          "indexed": true,
          "name": "_from",
          "type": "address"
        },
        {
          "indexed": true,
          "name": "_to",
          "type": "address"
        },
        {
          "indexed": false,
          "name": "_value",
          "type": "uint256"
        }
      ],
      "name": "Transfer",
      "type": "event"
    },
    {
      "anonymous": false,
      "inputs": [
        {
          "indexed": true,
          "name": "_owner",
          "type": "address"
        },
        {
          "indexed": true,
          "name": "_spender",
          "type": "address"
        },
        {
          "indexed": false,
          "name": "_value",
          "type": "uint256"
        }
      ],
      "name": "Approval",
      "type": "event"
    },
    {
      "anonymous": false,
      "inputs": [
        {
          "indexed": false,
          "name": "_buyer",
          "type": "address"
        },
        {
          "indexed": false,
          "name": "_amount",
          "type": "uint256"
        }
      ],
      "name": "Sell",
      "type": "event"
    },
    {
      "anonymous": false,
      "inputs": [
        {
          "indexed": false,
          "name": "_seller",
          "type": "address"
        },
        {
          "indexed": false,
          "name": "_amount",
          "type": "uint256"
        }
      ],
      "name": "Buy",
      "type": "event"
    },
    {
      "anonymous": false,
      "inputs": [
        {
          "indexed": false,
          "name": "_amount",
          "type": "uint256"
        }
      ],
      "name": "Mint",
      "type": "event"
    },
    {
      "constant": false,
      "inputs": [],
      "name": "requestFreeToken",
      "outputs": [
        {
          "name": "success",
          "type": "bool"
        }
      ],
      "payable": false,
      "stateMutability": "nonpayable",
      "type": "function"
    },
    {
      "constant": false,
      "inputs": [
        {
          "name": "_spender",
          "type": "address"
        },
        {
          "name": "_value",
          "type": "uint256"
        }
      ],
      "name": "approve",
      "outputs": [
        {
          "name": "success",
          "type": "bool"
        }
      ],
      "payable": false,
      "stateMutability": "nonpayable",
      "type": "function"
    },
    {
      "constant": true,
      "inputs": [
        {
          "name": "_numOfTokens",
          "type": "uint256"
        }
      ],
      "name": "calcCost",
      "outputs": [
        {
          "name": "totalCost",
          "type": "uint256"
        }
      ],
      "payable": false,
      "stateMutability": "view",
      "type": "function"
    },
    {
      "constant": true,
      "inputs": [
        {
          "name": "_numOfTokens",
          "type": "uint256"
        }
      ],
      "name": "calcSale",
      "outputs": [
        {
          "name": "value",
          "type": "uint256"
        }
      ],
      "payable": false,
      "stateMutability": "view",
      "type": "function"
    },
    {
      "constant": false,
      "inputs": [
        {
          "name": "_to",
          "type": "address"
        },
        {
          "name": "_value",
          "type": "uint256"
        }
      ],
      "name": "transfer",
      "outputs": [
        {
          "name": "success",
          "type": "bool"
        }
      ],
      "payable": false,
      "stateMutability": "nonpayable",
      "type": "function"
    },
    {
      "constant": false,
      "inputs": [
        {
          "name": "_from",
          "type": "address"
        },
        {
          "name": "_to",
          "type": "address"
        },
        {
          "name": "_value",
          "type": "uint256"
        }
      ],
      "name": "transferFrom",
      "outputs": [
        {
          "name": "success",
          "type": "bool"
        }
      ],
      "payable": false,
      "stateMutability": "nonpayable",
      "type": "function"
    },
    {
      "constant": false,
      "inputs": [
        {
          "name": "_numOfTokens",
          "type": "uint256"
        }
      ],
      "name": "buy",
      "outputs": [
        {
          "name": "success",
          "type": "bool"
        }
      ],
      "payable": true,
      "stateMutability": "payable",
      "type": "function"
    },
    {
      "constant": false,
      "inputs": [
        {
          "name": "_numOfTokens",
          "type": "uint256"
        }
      ],
      "name": "sell",
      "outputs": [
        {
          "name": "success",
          "type": "bool"
        }
      ],
      "payable": false,
      "stateMutability": "nonpayable",
      "type": "function"
    }
  ],
  "bytecode": "0x60806040526040805190810160405280600581526020017f6d636f696e000000000000000000000000000000000000000000000000000000815250600090805190602001906200005192919062000180565b506040805190810160405280600381526020017f4d434f0000000000000000000000000000000000000000000000000000000000815250600190805190602001906200009f92919062000180565b506040805190810160405280600a81526020017f6d636f696e2076312e300000000000000000000000000000000000000000000081525060029080519060200190620000ed92919062000180565b506000600755600060085560006009553480156200010a57600080fd5b50604051602080620015798339810180604052810190808051906020019092919050505080600a60003373ffffffffffffffffffffffffffffffffffffffff1673ffffffffffffffffffffffffffffffffffffffff1681526020019081526020016000208190555080600381905550506200022f565b828054600181600116156101000203166002900490600052602060002090601f016020900481019282601f10620001c357805160ff1916838001178555620001f4565b82800160010185558215620001f4579182015b82811115620001f3578251825591602001919060010190620001d6565b5b50905062000203919062000207565b5090565b6200022c91905b80821115620002285760008160009055506001016200020e565b5090565b90565b61133a806200023f6000396000f30060806040526004361061011d576000357c0100000000000000000000000000000000000000000000000000000000900463ffffffff16806306fdde0314610122578063095ea7b3146101b257806318160ddd1461021757806323b872dd14610242578063313ce567146102c7578063473a6d52146102f25780635a3b7e421461033357806370a08231146103c35780637ff9b5961461041a57806395d89b41146104455780639a09b31e146104d5578063a035b1fe14610504578063a2309ff81461052f578063a9059cbb1461055a578063c06b6588146105bf578063d96a094a14610600578063dd62ed3e14610638578063e4849b32146106af578063e8927fbc146106f4578063f16673a41461071f578063f851a4401461074a575b600080fd5b34801561012e57600080fd5b506101376107a1565b6040518080602001828103825283818151815260200191508051906020019080838360005b8381101561017757808201518184015260208101905061015c565b50505050905090810190601f1680156101a45780820380516001836020036101000a031916815260200191505b509250505060405180910390f35b3480156101be57600080fd5b506101fd600480360381019080803573ffffffffffffffffffffffffffffffffffffffff1690602001909291908035906020019092919050505061083f565b604051808215151515815260200191505060405180910390f35b34801561022357600080fd5b5061022c610931565b6040518082815260200191505060405180910390f35b34801561024e57600080fd5b506102ad600480360381019080803573ffffffffffffffffffffffffffffffffffffffff169060200190929190803573ffffffffffffffffffffffffffffffffffffffff16906020019092919080359060200190929190505050610937565b604051808215151515815260200191505060405180910390f35b3480156102d357600080fd5b506102dc610c03565b6040518082815260200191505060405180910390f35b3480156102fe57600080fd5b5061031d60048036038101908080359060200190929190505050610c09565b6040518082815260200191505060405180910390f35b34801561033f57600080fd5b50610348610c4a565b6040518080602001828103825283818151815260200191508051906020019080838360005b8381101561038857808201518184015260208101905061036d565b50505050905090810190601f1680156103b55780820380516001836020036101000a031916815260200191505b509250505060405180910390f35b3480156103cf57600080fd5b50610404600480360381019080803573ffffffffffffffffffffffffffffffffffffffff169060200190929190505050610ce8565b6040518082815260200191505060405180910390f35b34801561042657600080fd5b5061042f610d00565b6040518082815260200191505060405180910390f35b34801561045157600080fd5b5061045a610d06565b6040518080602001828103825283818151815260200191508051906020019080838360005b8381101561049a57808201518184015260208101905061047f565b50505050905090810190601f1680156104c75780820380516001836020036101000a031916815260200191505b509250505060405180910390f35b3480156104e157600080fd5b506104ea610da4565b604051808215151515815260200191505060405180910390f35b34801561051057600080fd5b50610519610e2f565b6040518082815260200191505060405180910390f35b34801561053b57600080fd5b50610544610e35565b6040518082815260200191505060405180910390f35b34801561056657600080fd5b506105a5600480360381019080803573ffffffffffffffffffffffffffffffffffffffff16906020019092919080359060200190929190505050610e3b565b604051808215151515815260200191505060405180910390f35b3480156105cb57600080fd5b506105ea60048036038101908080359060200190929190505050610f94565b6040518082815260200191505060405180910390f35b61061e60048036038101908080359060200190929190505050610faf565b604051808215151515815260200191505060405180910390f35b34801561064457600080fd5b50610699600480360381019080803573ffffffffffffffffffffffffffffffffffffffff169060200190929190803573ffffffffffffffffffffffffffffffffffffffff1690602001909291905050506110ed565b6040518082815260200191505060405180910390f35b3480156106bb57600080fd5b506106da60048036038101908080359060200190929190505050611112565b604051808215151515815260200191505060405180910390f35b34801561070057600080fd5b50610709611272565b6040518082815260200191505060405180910390f35b34801561072b57600080fd5b5061073461127d565b6040518082815260200191505060405180910390f35b34801561075657600080fd5b5061075f611283565b604051808273ffffffffffffffffffffffffffffffffffffffff1673ffffffffffffffffffffffffffffffffffffffff16815260200191505060405180910390f35b60008054600181600116156101000203166002900480601f0160208091040260200160405190810160405280929190818152602001828054600181600116156101000203166002900480156108375780601f1061080c57610100808354040283529160200191610837565b820191906000526020600020905b81548152906001019060200180831161081a57829003601f168201915b505050505081565b600081600b60003373ffffffffffffffffffffffffffffffffffffffff1673ffffffffffffffffffffffffffffffffffffffff16815260200190815260200160002060008573ffffffffffffffffffffffffffffffffffffffff1673ffffffffffffffffffffffffffffffffffffffff168152602001908152602001600020819055508273ffffffffffffffffffffffffffffffffffffffff163373ffffffffffffffffffffffffffffffffffffffff167f8c5be1e5ebec7d5bd14f71427d1e84f3dd0314c0f7b2291e5b200ac8c7c3b925846040518082815260200191505060405180910390a36001905092915050565b60035481565b6000600a60008573ffffffffffffffffffffffffffffffffffffffff1673ffffffffffffffffffffffffffffffffffffffff16815260200190815260200160002054821115151561098757600080fd5b600b60008573ffffffffffffffffffffffffffffffffffffffff1673ffffffffffffffffffffffffffffffffffffffff16815260200190815260200160002060003373ffffffffffffffffffffffffffffffffffffffff1673ffffffffffffffffffffffffffffffffffffffff168152602001908152602001600020548211151515610a1257600080fd5b600560009054906101000a900473ffffffffffffffffffffffffffffffffffffffff1673ffffffffffffffffffffffffffffffffffffffff168373ffffffffffffffffffffffffffffffffffffffff1614151515610a6f57600080fd5b81600a60008673ffffffffffffffffffffffffffffffffffffffff1673ffffffffffffffffffffffffffffffffffffffff1681526020019081526020016000206000828254039250508190555081600a60008573ffffffffffffffffffffffffffffffffffffffff1673ffffffffffffffffffffffffffffffffffffffff1681526020019081526020016000206000828254019250508190555081600b60008673ffffffffffffffffffffffffffffffffffffffff1673ffffffffffffffffffffffffffffffffffffffff16815260200190815260200160002060003373ffffffffffffffffffffffffffffffffffffffff1673ffffffffffffffffffffffffffffffffffffffff168152602001908152602001600020600082825403925050819055508273ffffffffffffffffffffffffffffffffffffffff168473ffffffffffffffffffffffffffffffffffffffff167fddf252ad1be2c89b69c2b068fc378daa952ba7f163c4a11628f55a4df523b3ef846040518082815260200191505060405180910390a3600190509392505050565b60075481565b6000806000809150600090505b83811015610c405760085466038d7ea4c68000600183010283010191508080600101915050610c16565b8192505050919050565b60028054600181600116156101000203166002900480601f016020809104026020016040519081016040528092919081815260200182805460018160011615610100020316600290048015610ce05780601f10610cb557610100808354040283529160200191610ce0565b820191906000526020600020905b815481529060010190602001808311610cc357829003601f168201915b505050505081565b600a6020528060005260406000206000915090505481565b60065481565b60018054600181600116156101000203166002900480601f016020809104026020016040519081016040528092919081815260200182805460018160011615610100020316600290048015610d9c5780601f10610d7157610100808354040283529160200191610d9c565b820191906000526020600020905b815481529060010190602001808311610d7f57829003601f168201915b505050505081565b60006103e8600954101515610db857600080fd5b6001600a60003373ffffffffffffffffffffffffffffffffffffffff1673ffffffffffffffffffffffffffffffffffffffff16815260200190815260200160002060008282540192505081905550600160036000828254019250508190555060016009600082825401925050819055506001905090565b60085481565b60095481565b600081600a60003373ffffffffffffffffffffffffffffffffffffffff1673ffffffffffffffffffffffffffffffffffffffff1681526020019081526020016000205410151515610e8b57600080fd5b81600a60003373ffffffffffffffffffffffffffffffffffffffff1673ffffffffffffffffffffffffffffffffffffffff1681526020019081526020016000206000828254039250508190555081600a60008573ffffffffffffffffffffffffffffffffffffffff1673ffffffffffffffffffffffffffffffffffffffff168152602001908152602001600020600082825401925050819055508273ffffffffffffffffffffffffffffffffffffffff163373ffffffffffffffffffffffffffffffffffffffff167fddf252ad1be2c89b69c2b068fc378daa952ba7f163c4a11628f55a4df523b3ef846040518082815260200191505060405180910390a36001905092915050565b600081600354600454811515610fa657fe5b04029050919050565b600080610fbb83610c09565b3410151515610fc957600080fd5b60198311151515610fd957600080fd5b82600a60003373ffffffffffffffffffffffffffffffffffffffff1673ffffffffffffffffffffffffffffffffffffffff16815260200190815260200160002060008282540192505081905550826003600082825401925050819055508260096000828254019250508190555034600460008282540192505081905550600090505b828110156110785761106b6112a9565b808060010191505061105b565b7f5e5e995ce3133561afceaa51a9a154d5db228cd7525d34df5185582c18d3df093384604051808373ffffffffffffffffffffffffffffffffffffffff1673ffffffffffffffffffffffffffffffffffffffff1681526020018281526020019250505060405180910390a16001915050919050565b600b602052816000526040600020602052806000526040600020600091509150505481565b60008061111e83610f94565b6004541015151561112e57600080fd5b82600a60003373ffffffffffffffffffffffffffffffffffffffff1673ffffffffffffffffffffffffffffffffffffffff168152602001908152602001600020541015151561117c57600080fd5b82600360008282540392505081905550600090505b828110156111ae576111a16112c2565b8080600101915050611191565b3373ffffffffffffffffffffffffffffffffffffffff166108fc6111d185610f94565b9081150290604051600060405180830381858888f193505050501580156111fc573d6000803e3d6000fd5b507fe3d4187f6ca4248660cc0ac8b8056515bac4a8132be2eca31d6d0cc170722a7e3384604051808373ffffffffffffffffffffffffffffffffffffffff1673ffffffffffffffffffffffffffffffffffffffff1681526020018281526020019250505060405180910390a16001915050919050565b66038d7ea4c6800081565b60045481565b600560009054906101000a900473ffffffffffffffffffffffffffffffffffffffff1681565b66038d7ea4c68000600860008282540192505081905550565b60006008541115156112d357600080fd5b600066038d7ea4c680006008540310156112f457600060088190555061130c565b66038d7ea4c680006008600082825403925050819055505b5600a165627a7a72305820d5bff8083a9b9f5dbb5afc7a05a5b1c16e6f57fae2569da99133c4995beb96850029",
  "source": "pragma solidity ^0.4.2;\r\n\r\n/*\r\n * The ERC-20 token MCoin, a token for use in the Chainz app.\r\n * Used as proof of stake in a curation market.  Some tokens\r\n * initially offered free, after which there is a linear increase\r\n * in price of 0.001 (this needs adjustment) eth per token sold.  When a user sells a \r\n * token they get a proportionally amount of the eth pool.  First 1000 tokens free.\r\n * 1000000000000000 wei  = 0.001 eth\r\n */\r\n\r\ncontract mcoin {\r\n\tstring public name = 'mcoin';\r\n\tstring public symbol = 'MCO';\r\n\tstring public standard = 'mcoin v1.0';\r\n\r\n\t// amount minted - amount destroyed\r\n\tuint256 public totalSupply;\r\n\r\n\t// the amount of eth the contract has, this will be used for minting and paying out dividends\r\n\tuint256 public ethPool;\r\n\r\n\t// implies that the ethPool should be kept in this admin account instead\r\n\t// when coins are sold back they will go here -> need to check if this is cost efficient\r\n\taddress public admin;\r\n\r\n\t// how much it will cost for the next token purchase in wei\r\n\tuint256 public tokenPrice;\r\n\r\n\t// can only buy whole tokens\r\n\tuint256 public decimals = 0;\r\n\r\n\t// price of a single token\r\n\tuint256 public price = 0;\r\n\r\n\t// amount minted\r\n\tuint256 public totalMinted = 0;\r\n\r\n\t// price increase everytime token is bought\r\n\tuint256 public constant increase = 1000000000000000;\r\n\r\n\r\n\tevent Transfer(\r\n\t\taddress indexed _from,\r\n\t\taddress indexed _to,\r\n\t\tuint256 _value\r\n\t);\r\n\r\n\tevent Approval(\r\n\t\taddress indexed _owner,\r\n\t\taddress indexed _spender,\r\n\t\tuint256 _value\r\n\t);\r\n\r\n\tevent Sell (\r\n\t\taddress _buyer,\r\n\t\tuint256 _amount\r\n\t);\r\n\r\n\tevent Buy (\r\n\t\taddress _seller,\r\n\t\tuint256 _amount\r\n\t);\r\n\r\n\tevent Mint (\r\n\t\tuint256 _amount\r\n\t);\r\n\r\n\tmapping(address => uint256) public balanceOf;\r\n\r\n\tmapping(address => mapping(address => uint256)) public allowance;\r\n\r\n\t/*\r\n\t * Create the contract with an initial supply of tokens\r\n\t */\r\n\tconstructor(uint256 _initialSupply) public {\r\n\t\tbalanceOf[msg.sender] = _initialSupply;\r\n\t\ttotalSupply = _initialSupply;\r\n\t}\r\n\r\n\t/*\r\n\t * A function that gives a user a free token if there\r\n\t * is less than 1000 total minted. Will replace\r\n\t * mcoinSale for initial token offering.\r\n\t */\r\n\tfunction requestFreeToken() public returns (bool success) {\r\n\t\trequire(totalMinted < 1000);\r\n\t\tbalanceOf[msg.sender] += 1;\r\n\t\ttotalSupply += 1;\r\n\t\ttotalMinted += 1;\r\n\r\n\t\treturn true;\r\n\t}\r\n\r\n\t// Delegated transfers\r\n\tfunction approve(address _spender, uint256 _value) public returns (bool success) {\r\n\t\tallowance[msg.sender][_spender] = _value;\r\n\r\n\t\temit Approval(msg.sender, _spender, _value);\r\n\r\n\t\treturn true;\r\n\t}\r\n\r\n\tfunction approveAndCall() internal pure {\r\n\t\t// figure out what this is supposed to do\r\n\t}\r\n\r\n\t/*\r\n\t * Increase the price of a token by the set increase.\r\n\t * To be done everytime a token is bought.\r\n\t */\r\n\tfunction increaseTokenPrice() internal {\r\n\t\tprice += increase;\r\n\t}\r\n\r\n\t/*\r\n\t * Decrease the price of a token by the set decrease.\r\n\t * To be done everytime a token is sold back.\r\n\t */\r\n\tfunction decreaseTokenPrice() internal {\r\n\t\trequire(price > 0);\r\n\t\tif (price - increase < 0) {\r\n\t\t\tprice = 0;\r\n\t\t} else {\r\n\t\t\tprice -= increase;\r\n\t\t}\r\n\t}\r\n\r\n\t/*\r\n\t * Determine how much it cost to buy an amount of the tokens.\r\n\t */\r\n\tfunction calcCost(uint _numOfTokens) public view returns (uint256 totalCost) {\r\n\t\tuint256 cost = 0;\r\n\t\tfor (uint i = 0; i < _numOfTokens; i++) {\r\n\t\t\tcost =  cost + ((i + 1) * increase) + price;\r\n\t\t}\r\n\t\treturn cost;\r\n\t}\r\n\r\n\t/*\r\n\t * Determine how much a user gets for selling an amount of the tokens.\r\n\t * Shouldn't this just be a proportion of the eth pool?\r\n\t * Want to use safe math.\r\n\t */\r\n\tfunction calcSale(uint _numOfTokens) public view returns (uint256 value) {\r\n\t\treturn (ethPool/totalSupply) * _numOfTokens;\r\n\t}\r\n\r\n\t/*\r\n\t * Transfer tokens from one account to another.\r\n\t */\r\n\tfunction transfer(address _to, uint256 _value) public returns (bool success) {\r\n\t\t// need to own the amount you are transfering\r\n\t\trequire(balanceOf[msg.sender] >= _value);\r\n\t\t// this means that you are returning the tokens to admin\r\n\t\t// this needs to be 0x0 or something\r\n\t\t// require(_to != admin);\r\n\r\n\t\tbalanceOf[msg.sender] -= _value;\r\n\t\tbalanceOf[_to] += _value;\r\n\r\n\t\temit Transfer(msg.sender, _to, _value);\r\n\r\n\t\treturn true;\r\n\t}\r\n\r\n\tfunction transferFrom(address _from, address _to, uint256 _value) public returns (bool success) {\r\n\t\trequire(_value <= balanceOf[_from]);\r\n\t\trequire(_value <= allowance[_from][msg.sender]);\r\n\t\trequire(_to != admin);\r\n\r\n\t\tbalanceOf[_from] -= _value;\r\n\t\tbalanceOf[_to] += _value;\r\n\r\n\t\tallowance[_from][msg.sender] -= _value;\r\n\r\n\t\temit Transfer(_from, _to, _value);\r\n\r\n\t\treturn true;\r\n\t}\r\n\r\n\tfunction buy(uint _numOfTokens) public payable returns (bool success) {\r\n\t\trequire(msg.value >= calcCost(_numOfTokens));\r\n\t\trequire(_numOfTokens <= 25);\r\n\r\n\t\tbalanceOf[msg.sender] += _numOfTokens;\r\n\t\ttotalSupply += _numOfTokens;\r\n\t\ttotalMinted += _numOfTokens;\r\n\t\tethPool += msg.value;\r\n\r\n\t\tfor(uint i = 0; i < _numOfTokens; i++) {\r\n\t\t\tincreaseTokenPrice();\r\n\t\t}\r\n\r\n\t\temit Sell(msg.sender, _numOfTokens);\r\n\r\n\t\treturn true;\r\n\t}\r\n\r\n\tfunction sell(uint _numOfTokens) public returns (bool success) {\r\n\t\trequire(ethPool >=  calcSale(_numOfTokens));\r\n\t\trequire(balanceOf[msg.sender] >= _numOfTokens);\r\n\r\n\t\ttotalSupply -= _numOfTokens;\r\n\r\n\t\tfor (uint i = 0; i < _numOfTokens; i++) {\r\n\t\t\tdecreaseTokenPrice();\r\n\t\t}\r\n\r\n\t\tmsg.sender.transfer(calcSale(_numOfTokens));\r\n\r\n\t\temit Buy(msg.sender, _numOfTokens);\r\n\r\n\t\treturn true;\r\n\t}\r\n}",
  "sourcePath": "C:\\Users\\Jorda\\Documents\\Coding\\customBlockchain\\contracts\\mcoin.sol",
  "compiler": {
    "name": "solc",
    "version": "0.4.23+commit.124ca40d.Emscripten.clang"
  },
  "schemaVersion": "2.0.0",
  "updatedAt": "2018-09-03T23:12:16.693Z"
}